:100000000C94F7060C943E070C943E070C943E07A4
:100010000C943E070C943E070C943E070C943E074C
:100020000C943E070C943E070C94382E0C940C2F25
:100030000C94E5250C943E070C943E070C943E0767
:100040000C943E070C943E070C943E070C943E071C
:100050000C943E070C943C260C943E070C943E07EF
:100060000C943E070C943E070C943E070C943E07FC
:100070000C943E070C943E070C943E070C943E07EC
:100080000C943E070C943E070C943E070C943E07DC
:100090000C943E070C943E070C943E070C943E07CC
:1000A0000C943E070C943E070C943E070401FA00A2
:1000B000F000E600DC00D200C800BE000000000531
:1000C00024FFFFFF0000000000058466FFFF000022
:1000D000000000051CFFFFFF0000000000050000FD
:1000E000FFFF000000000005AAFFFFFF0000000066
:1000F000000500FFFFFF00000000000555FFFFFFA7
:10010000000000000005D5FFFFFF00000000000018
:10011000000011500000000000000000000000007E
:10012000A800AD001250AC00AE00AB002B08500987
:100130004F0929002800135035001E001F002B0016
:100140001E001F00A800045115500601BE00BD008E
:10015000190100000000000001000000DE5C005CEE
:10016000015C000000000000A80000001650000024
:1001700000000000000000000000A8000000175070
:10018000000000000000000000000000A8000000C7
:100190001050000000000000000000000000444576
:1001A0004255473A2064697361626C65642E0A00A7
:1001B00044454255473A20656E61626C65642E0A7B
:1001C000000A0025303862003A20002530325800FD
:1001D0000A722F632030313233343536370A0072D9
:1001E00067626C696768742074696D657220646900
:1001F0007361626C652E0A007267626C696768746D
:100200002074696D657220656E61626C65642E0A8A
:10021000007267626C696768742073657420687324
:1002200076205B4E4F454550524F4D5D3A20257527
:100230002C25752C25750A007267626C69676874D5
:100240002073657420687376205B454550524F4D8E
:100250005D3A2025752C25752C25750A007267627C
:100260006C69676874207261696E626F772073656C
:1002700074206873763A2025642C25642C25642C20
:1002800025750A007267626C696768742064697317
:1002900061626C65205B4E4F454550524F4D5D3A53
:1002A000207267626C696768745F636F6E66696706
:1002B0002E656E61626C65203D2025750A007267AF
:1002C000626C696768742064697361626C65205B45
:1002D000454550524F4D5D3A207267626C696768C0
:1002E000745F636F6E6669672E656E61626C652010
:1002F0003D2025750A007267626C69676874206525
:100300006E61626C65205B4E4F454550524F4D5DAE
:100310003A207267626C696768745F636F6E6669C2
:10032000672E656E61626C65203D2025750A00723E
:1003300067626C6967687420656E61626C65205BDA
:10034000454550524F4D5D3A207267626C6967684F
:10035000745F636F6E6669672E656E61626C65209F
:100360003D2025750A007267626C696768742074A5
:100370006F67676C65205B454550524F4D5D3A2075
:100380007267626C696768745F636F6E6669672E17
:10039000656E61626C65203D2025750A007267629A
:1003A0006C69676874206D6F6465205B4E4F4545CE
:1003B00050524F4D5D3A2025750A007267626C6994
:1003C000676874206D6F6465205B454550524F4DE2
:1003D0005D3A2025750A007267626C696768745F10
:1003E000696E6974207267626C696768745F636FB5
:1003F0006E6669672E6D6F6465203D20302E205734
:10040000726974652064656661756C742076616CD0
:1004100075657320746F20454550524F4D2E0A006C
:100420007267626C696768745F696E69742065657C
:10043000636F6E666967206973206E6F7420656EE6
:1004400061626C65642E0A007267626C6967687429
:100450005F696E6974207374617274210A00726737
:10046000626C696768745F696E69742063616C6C43
:1004700065642E0A007267626C696768745F636FF7
:100480006E6669672E7370656564203D2025640A79
:10049000007267626C696768745F636F6E66696734
:1004A0002E76616C203D2025640A007267626C69BB
:1004B0006768745F636F6E6669672E736174203D51
:1004C0002025640A007267626C696768745F636FF5
:1004D0006E6669672E687565203D2025640A007286
:1004E00067686C696768745F636F6E6669672E6DB5
:1004F0006F6465203D2025640A007267626C69673D
:1005000068745F636F6E6669672E656E61626C65A5
:10051000203D2025640A007267626C696768745F19
:10052000636F6E66696720454550524F4D3A0A0029
:1005300032190A00047F3F1F643214643214783C7D
:100540001E1E140A052223252628292A2C2D2F3089
:1005500032333536383A3B3D3E4042434547494ABF
:100560004C4E5051535557595A5C5E6062646668F0
:10057000696B6D6F71737577797B7D7F81838587FB
:10058000898A8C8E90929496989A9C9E9FA1A3A5FE
:10059000A7A8AAACAEAFB1B3B4B6B8B9BBBCBEBF26
:1005A000C1C2C3C5C6C7C9CACBCCCDCED0D1D2D2A9
:1005B000D3D4D5D6D7D7D8D9D9DADADBDBDBDCDCB4
:1005C000DCDCDCDDDDDDDDDCDCDCDCDCDBDBDBDA6C
:1005D000DAD9D9D8D7D7D6D5D4D3D2D2D1D0CECDD7
:1005E000CCCBCAC9C7C6C5C3C2C1BFBEBCBBB9B8E4
:1005F000B6B4B3B1AFAEACAAA8A7A5A3A19F9E9C69
:100600009A98969492908E8C8A89878583817F7D33
:100610007B79777573716F6D6B6968666462605E14
:100620005C5A5957555351504E4C4A4947454342DD
:10063000403E3D3B3A3836353332302F2D2C2A2977
:100640002826252322FFAA7F554000010101010130
:10065000010101010202020202020202020303037B
:10066000030303030304040404040404050505054B
:10067000050606060606070707070708080808090B
:100680000909090A0A0A0B0B0B0C0C0C0D0D0D0EB7
:100690000E0E0F0F0F10101111111212131314144C
:1006A000151516161717181819191A1A1B1B1C1DC1
:1006B0001D1E1E1F2020212222232424252626271A
:1006C0002829292A2B2C2D2D2E2F3031323233344C
:1006D00035363738393A3B3C3D3E3F404142434452
:1006E00045464748494A4C4D4E4F50515354555634
:1006F00058595A5B5D5E5F616264656668696B6CE0
:100700006D6F7072737577787A7B7D7E808283855A
:1007100087888A8C8E8F91939596989A9C9EA0A29A
:10072000A3A5A7A9ABADAFB1B3B5B7BABCBEC0C2A4
:10073000C4C6C9CBCDCFD1D4D6D8DBDDDFE2E4E768
:10074000E9EBEEF0F3F5F8FAFDFF0A002530325838
:1007500020006B6579626F6172645F7265706F72A1
:10076000743A20000A0025303258006B6579626FB8
:100770006172645F7365745F6C65643A20003F006A
:10078000433E20004C25640A0074696D65725F72F7
:10079000656164333228293A202530346C580A00C8
:1007A0006B6579626F6172645F69646C653A20257C
:1007B000580A006B6579626F6172645F70726F7462
:1007C0006F636F6C3A2025580A00686F73745F6B13
:1007D0006579626F6172645F6C65647328293A2081
:1007E00025580A000A092D20537461747573202D51
:1007F0000A004743433A20382E332E3020415652C8
:100800002D4C4942433A20322E302E302041565250
:100810005F415243483A20617672350A004F505486
:10082000494F4E533A204C55464120455854524169
:100830004B455920434F4E534F4C4520434F4D4D50
:10084000414E4420343039360A004255494C443A2E
:100850002022302E392E34392D382D6734653861F9
:10086000663922202831303A33363A323620417503
:10087000672031332032303230290A005649443A59
:100880002030783437353228677265676F72696F48
:1008900029205049443A20307834443439284D696D
:1008A000786929205645523A203078303030310A64
:1008B000000A092D2056657273696F6E202D0A009B
:1008C0000A092D20436F6E736F6C65202D0A455306
:1008D000432F713A09717569740A000A092D204D78
:1008E00061676963202D0A443A094465627567208F
:1008F0004D65737361676520546F67676C650A584F
:100900003A094D6174726978204465627567204DBB
:100910006F646520546F67676C65202D2053686F86
:1009200077206B65797072657373657320696E20CB
:100930006D617472697820677269640A4B3A094B79
:100940006579626F61726420446562756720546FD7
:1009500067676C65202D2053686F77206B65797011
:1009600072657373207265706F72740A4D3A094430
:1009700065627567204D6F75736520546F67676C8E
:10098000650A563A0956657273696F6E0A533A09D9
:100990005374617475730A433A09416374697661EB
:1009A000746520436F6E736F6C65204D6F64650ACC
:1009B00046312D4631303A095377697463682074A3
:1009C0006F204C6179657220302D392028463130F6
:1009D000203D204C30290A302D393A09537769746B
:1009E000636820746F204C6179657220302D390A5C
:1009F00047524156453A0953776974636820746FCA
:100A0000204C6179657220302028616C7465726EAB
:100A1000617465290A423A094A756D7020746F2025
:100A2000426F6F746C6F616465720A4553433A0993
:100A30004A756D7020746F20426F6F746C6F6164C3
:100A400065722028616C7465726E617465290A454F
:100A50003A095072696E7420454550524F4D2053EB
:100A6000657474696E67730A4253504143453A098D
:100A7000436C65617220454550524F4D0A000A0093
:100A80002575002E6E6B726F3A20000A00257500E6
:100A90002E737761705F6261636B736C6173685F03
:100AA0006261636B73706163653A20000A002575AB
:100AB000002E737761705F67726176655F6573633F
:100AC0003A20000A002575002E6E6F5F6775693A3F
:100AD00020000A002575002E737761705F72616CCB
:100AE000745F726775693A20000A002575002E73DD
:100AF0007761705F6C616C745F6C6775693A200038
:100B00000A002575002E737761705F7263746C5FE5
:100B1000726775693A20000A002575002E737761A7
:100B2000705F6C63746C5F6C6775693A20000A00D3
:100B30002575002E636170736C6F636B5F746F5FFC
:100B4000636F6E74726F6C3A20000A002575002E78
:100B5000737761705F636F6E74726F6C5F636170E7
:100B6000736C6F636B3A20000A0025303258006BBB
:100B700065796D61705F636F6E6669672E7261770C
:100B80003A20000A002575002E6D6F7573653A20B6
:100B9000000A002575002E6B6579626F6172643AF8
:100BA00020000A002575002E6D61747269783A2064
:100BB000000A002575002E656E61626C653A2000A2
:100BC0000A00253032580064656275675F636F6E96
:100BD0006669672E7261773A20000A002575006405
:100BE000656661756C745F6C617965723A20003F6F
:100BF000000A6D6F7573653A206F66660A000A6DAC
:100C00006F7573653A206F6E0A000A6B6579626FC3
:100C10006172643A206F66660A000A6B6579626FDA
:100C20006172643A206F6E0A000A6D6174726978AD
:100C30003A206F66660A000A6D61747269783A201C
:100C40006F6E0A000A64656275673A206F66660A0D
:100C5000000A64656275673A206F6E0A000A0A4AE4
:100C6000756D70696E6720746F20626F6F746C6F42
:100C7000616465722E2E2E2000433E2000436C6579
:100C80006172696E6720454550524F4D0A00656597
:100C9000636F6E6669673A0A005B735D004B657946
:100CA000626F6172642073746172742E0A005B5704
:100CB0005D005B535D005B525D005B445D005B4328
:100CC0005D000403300000000A034D006900780055
:100CD00069000000120367007200650067006F0082
:100CE000720069006F0000000403090409025B0040
:100CF000030100A0FA090400000103010100092119
:100D0000110100012240000705810308000A0904BF
:100D1000010001030000000921110100012232003D
:100D20000705820320000A090402000203000000F4
:100D3000092111010001222200070583032000017F
:100D400007050303200001120110010000000852F2
:100D500047494D0100010203010631FF0974A10159
:100D60000975150026FF0095207508810209761582
:100D70000026FF00952075089102C005010980A199
:100D800001850319012AB700150126B700950175E1
:100D9000108100C0050C0901A101850419012AA0D8
:100DA00002150126A002950175108100C0050109F8
:100DB00006A101050719E029E71500250195087529
:100DC0000181029501750881010507190029FF15A8
:100DD0000026FF0095067508810005081901290500
:100DE000950575019102950175039101C0001124CB
:100DF0001FBECFEFDAE0DEBFCDBF04B603FE27C0D3
:100E00008091BA029091BB02A091BC02B091BD0248
:100E10008730904BA740B04BD1F41092BA02109299
:100E2000BB021092BC021092BD0214BE84B7877F31
:100E300084BF0FB6F894A895809160008861809374
:100E40006000109260000FBEE0E0F8E3099511E049
:100E5000A0E0B1E0E0ECF4E602C005900D92AC3DFC
:100E6000B107D9F722E0ACEDB1E001C01D92AA3B79
:100E7000B207E1F70E945E2B0C9422320C94000022
:100E8000FF93EF93E091DC01F091DD01309709F0E1
:100E90000995EF91FF910895FC018591803011F043
:100EA000EFDFFBCF0895FF27E0E230E247FF0CC001
:100EB000419597FF09C0EDE26095709580959095FA
:100EC000611D711D811D911D27FF02C0219530E319
:100ED00050E2AA27660F771F881F991FAA1FA41721
:100EE00010F0A41B63955A95A9F7AA3008F0A95FE2
:100EF000A05DAF93F395611571058105910541F7EB
:100F0000ED3211F4EF93F395F21718F43F93F39544
:100F1000FBCF8F91B5DFFA95E1F70895E991F9914B
:100F20008591803021F0853219F0AADFF9CF08953C
:100F300020E0E89455915532C1F3503311F4689490
:100F400055915A3348F4505390F3220F022E220F3A
:100F5000220F200D250FF4CF0EF421958991999140
:100F6000533619F3533729F1533559F1BC0188270A
:100F70009927E8945C3621F4899199916894559168
:100F8000543639F446EF7EF077FF0DC08FEF9FEFB8
:100F90000AC055374AE039F0583540E121F0523661
:100FA00042E009F00895FF93EF937DDFEF91FF9109
:100FB000B7CFFF93EF93FC0181918030B9F360DFED
:100FC000FBCFFF93EF9368DFF1CFDF93CF93CDB7E4
:100FD000DEB72596A3DFCF91DF9108950E947F139E
:100FE0004FEF6FEF80E00E9472108EE00E947C1342
:100FF00060E070E0CB010E94B5240C94C1248CEA1F
:1010000090E090930302809302020895CF92DF92C2
:10101000EF92FF926B017C0140E00E940022682F5A
:1010200080E00E941D1441E0C701B6010E94002229
:10103000682F81E00E941D1442E0C701B6010E94A2
:101040000022682F82E00E941D1443E0C701B60110
:101050000E940022682F83E00E941D1444E0C70113
:10106000B6010E940022682F84E00E941D1445E012
:10107000C701B6010E940022682F85E00E941D145E
:1010800046E0C701B6010E940022682F86E00E9458
:101090001D1447E0C701B6010E940022682F87E0B7
:1010A0000E941D14C701B601FF90EF90DF90CF9012
:1010B000089581FB662760F980E00E941D1481E09D
:1010C0000895CF93C62F811117C00E94152288233F
:1010D00021F080E0CF910C949D1B82E00E941522AC
:1010E000882329F08FE4C111F5CF80E5F3CF89EA99
:1010F000C111F0CF8AEAEECFCF91089581E0089533
:1011000081E008950C94800808950C9484081F933E
:10111000CF93DF9300D000D00F92CDB7DEB74983D5
:101120005A836B833091220289819A8131111DC0CB
:101130006623B9F02223A9F00E942623182F682FD6
:1011400089819A810E94D12269817A81812F0F90B1
:101150000F900F900F900F90DF91CF911F910C94F3
:1011600051090E94FE22182FEFCF0E942623698189
:101170007A81EDCFFC01262F4081518162817381FC
:1011800084810C948708CF93DF93EC0160E00E9488
:10119000BA08BE01DF91CF910C9485080E94872484
:1011A000811102C00E941D250C94540B0C94570B06
:1011B00008950C94D8080C945908CF93C82F0E9416
:1011C000D9088C2FCF910C94DB0808950E941D1E26
:1011D0000E94E5082FEF84E39CE02150804090407E
:1011E000E1F700C000000C9460260F931F93CF938B
:1011F000DF93EC0161E00E94BA088C01BE010E94FD
:101200008208882341F1BE01C8010E9492178823F9
:1012100011F1BE01C8010E94D3178823E1F0BE017D
:10122000C8010E94F6188823B1F0BE01C8010E94CF
:101230009415882381F08A81882341F101308CE55F
:10124000180779F00E3D8CE51807E9F001151C45EB
:10125000E9F40E94E60880E0DF91CF911F910F91A1
:10126000089590917A02892F8E7F90FF81608093FC
:101270007A0280FF05C080EB91E00E944C07EBCF23
:101280008EE991E0FACF0E941D25E5CFCE01DF91D6
:10129000CF911F910F910C947E0890E080E008950B
:1012A0000895972F70E023E0929F600D711D112427
:1012B000FB0199E0899FE00DF11D1124EE0FFF1F46
:1012C000E25FFE4F859194910895FC01EE0FFF1FA0
:1012D000EF53FE4F859194910895CF93DF930E9431
:1012E00051090E94790AEC01811520E5920708F066
:1012F00041C0811530E4930708F0B4C0803E9105E9
:1013000018F5803C910508F09DC0883A910570F46D
:10131000853A910508F08EC081309105F9F000976B
:10132000E9F00497D8F4D0E0C0E018C08F3B9105F5
:10133000D0F7C85AD0E0CC0FDD1FCD5DDE4F09904D
:10134000D881C02DD4640AC08115904258F4C115CB
:1013500081E0D80718F4C83ED10528F7CE01DF9107
:10136000CF910895C11590E3D90708F071C0CE015F
:101370009F706AC0811525E5920758F5811534E5FF
:10138000930708F09EC0811542E5940750F4C115FB
:1013900081E5D80708F469C0DC2FCC27C16FD06A7B
:1013A000DDCF982F969596959E0123703327C11512
:1013B000D34508F077C0C1E0D0E002C0CC0FDD1FFC
:1013C0002A95E2F720E2929FC0011124C82BD92B65
:1013D00067C0C11589E5D807A8F4C11598E5D907F4
:1013E00008F074C0C11526E5D20708F09CCF8C2FF9
:1013F0000E94100BC82FD0E0DC2FCC27CC27DF7148
:10140000D062ACCFC1153AE5D30708F464C0CE0171
:1014100090568115904208F086CF8D2F8F710E94D3
:10142000100B90E0982F882788279F719C012C2B08
:10143000E901E6CFC55AD0E0CF5ADE4FC881D0E0EF
:10144000D0648CCF805C91090E946509EC0186CF45
:10145000CE019927D3FF03C0EC01D86C7FCFEC01FC
:10146000D06C7CCFDF70D06A79CFCE01E4E0969566
:101470008795EA95E1F783702C2F269526952370A2
:1014800090E2299F90011124382B8C2F8370C1E0AA
:10149000D0E002C0CC0FDD1F8A95E2F7C22BD32B20
:1014A000DC685CCFC1E0D0E002C0CC0FDD1F2A9524
:1014B000E2F730E2939FC0011124C82BD92BDA68E0
:1014C0004DCFD82FCC27C46FD06A48CFDC2FCC2784
:1014D000C06FD06A43CF8C2F8F700E94100B34E006
:1014E000D695C7953A95E1F7CF709C2FEC01D0695E
:1014F00035CF82389105B1F1B0F48133910509F40B
:1015000075C048F48932910509F469C08A329105A1
:1015100009F473C008958533910509F459C08933DE
:10152000910501F10895833E9105A9F138F4803EBB
:101530009105F9F0823E910549F10895863E9105A5
:10154000A9F1873E9105C9F1843E910519F52091D5
:10155000AC0221FF1FC08091AB0284FD14C087EE56
:1015600090E008952091AB022370A1F080EE90E00E
:1015700008952091AB0220FD47C03091AC0230FFAE
:1015800009C024FF44C090E080E004C02091AB0279
:1015900022FDF7CF08952091AB0222FD3BC0309190
:1015A000AC0230FDE3CF24FFF5CFEDCF2091AB02AD
:1015B00023FFF0CF24FDE7CFD2CF2091AB0223FD54
:1015C0002CC03091AC0231FFEECF84EE90E0089554
:1015D0002091AB0225FFDECF89E290E008952091B3
:1015E000AB0225FFD7CF85E390E008952091AB02B1
:1015F00026FFD0CF8AE290E008952091AB0226FF2B
:10160000C9CF81E390E0089589E390E0089583EEE7
:1016100090E0089582EE90E0089586EE90E00895BF
:101620009091AB0292FF06C0282F28712830F9F460
:10163000877F846093FF06C0282F28712831F1F43A
:10164000877E84612091AC0220FF06C0382F38715C
:101650003830D9F4877F816021FF06C0282F287198
:101660002831D1F4877E816194FD877E0895282FEB
:1016700024712430F9F68B7F8860DCCF282F247109
:10168000243101F78B7E8861DDCF382F3171313005
:1016900019F78E7F8860E0CF282F2171213121F743
:1016A0008E7E8861E1CF08950C94530B08950C94BD
:1016B000560BE82FF0E0E057FD4F80810895CF9260
:1016C000DF92EF92FF920F931F93CF93DF9380ED02
:1016D00091E00E944C0780E9E82E82E0F82ED0E0ED
:1016E000C0E09BECC92E91E0D92E03EC11E0DF9312
:1016F000CF93DF92CF920E94E50788EC91E00E94A1
:101700004C07F70181917F010E946F241F928F93F4
:101710001F930F930E94E50781EC91E00E944C0714
:1017200021968DB79EB708960FB6F8949EBF0FBE50
:101730008DBFC330D105D9F6DF91CF911F910F91A5
:10174000FF90EF90DF90CF900895FF920F931F933B
:10175000CF93DF9324E531E06DE571E0C1E0D0E0A7
:10176000D90150E040E08D918F3F91F0E82FE29554
:10177000EF70F0E0F1A08F708E0101C0000F8A952C
:10178000EAF7902F90959F2191A382A1802B82A3AD
:101790004F5F5F4F4330510531F72D5F3F4F621769
:1017A0007307F1F610928D021092900210928E0241
:1017B0001092910210928F021092920283E00E9486
:1017C0003D0CDF91CF911F910F91FF900C94CE08AB
:1017D000EF92FF920F931F93CF93DF93EDE8F2E028
:1017E00064E571E0C0E001E010E07B0150E040E022
:1017F00030E0D7012D917D012F3FB9F0822F8295E6
:101800008F7090E0DC0190968C9190E02F7002C078
:10181000959587952A95E2F780FD2BC0C801042E87
:1018200001C0880F0A94EAF7382B4F5F5F4F4330AF
:101830005105F9F680818317F1F0308381E0C82BE0
:1018400031966D5F7F4FB1E06D357B0771F62C2FC0
:1018500043E060E972E08DE892E00E943E0C0E9455
:10186000D6088C2FDF91CF911F910F91FF90EF90B1
:10187000089580E0D9CF80E0E2CF0895FF920F93E2
:101880001F93CF93DF93F82E092F162FD72FC42F36
:10189000222349F081E08093E0010E941526909375
:1018A000DF018093DE018091E0018823A1F0809127
:1018B000DE019091DF010E942D26069760F0EF2D4A
:1018C000F02FA12FBD2FCE0FDF2FD11DEC17FD075D
:1018D00041F41092E001DF91CF911F910F91FF90A1
:1018E000089581918D93F2CFAF92BF92CF92DF9204
:1018F000FF920F931F93CF93DF93362F472FE82F3D
:10190000F0E0E65BF94F71110DC06491762F862FE0
:10191000DF91CF911F910F91FF90DF90CF90BF90FB
:10192000AF900895C72FD0E02491F22E022F10E03F
:1019300056E0659FC0011124EFEFF0E0BF010E9467
:10194000D730832F90E0880F991F35E5369FD0015F
:10195000379FB00D11248A1B9B0B982F990F980F5E
:101960006F01CC1ADD0AC09ED001C19EB00DD09E81
:10197000B00D11248B2F949FA0011124452F5527C2
:101980006F01C41AD50AC09EA001C19E500DD09E01
:10199000500D11245F01A91AB108AC9E6001AD9EE3
:1019A000D00CBC9ED00C1124CD2CDD24EC19FD09EB
:1019B000E09FE001E19FD00DF09FD00D1124ED2FAD
:1019C00062307105A1F048F46115710569F061306C
:1019D000710589F0EB2F852F07C06430710571F018
:1019E00088F066307105B1F76E2F722F91CFE22F1C
:1019F0002B2F8D2FF9CFE22F252FF6CFEB2F822F14
:101A00002D2FF2CF2B2F8F2DE52FEECF0895CF93D3
:101A1000DF93762FE901682F842F0E94740C79835D
:101A200068838A83DF91CF91089580919302982FE4
:101A30009E7F29F481708260809393020895863599
:101A4000E8F381708465F8CF88E090E00C947F31F2
:101A5000CF92DF92EF92FF926B017C010E94150DF5
:101A6000B701A60188E090E0FF90EF90DF90CF9063
:101A70000C949D31E3E9F2E083E0808311828FEFE3
:101A800082838383148260817181828193810C942B
:101A9000280D80917A0280FF76C087E195E09F93C0
:101AA0008F930E94E50780917A020F900F9080FF3C
:101AB0006AC08091930281701F928F938AEF94E0A5
:101AC0009F938F930E94E50780917A020F900F9069
:101AD0000F900F9080FF57C08091930286951F92C0
:101AE0008F938FED94E09F938F930E94E5078091F1
:101AF0007A020F900F900F900F9080FF44C080915A
:101B000094021F928F9385EC94E09F938F930E9491
:101B1000E50780917A020F900F900F900F9080FF51
:101B200032C0809195021F928F938BEA94E09F932D
:101B30008F930E94E50780917A020F900F900F908B
:101B40000F9080FF20C0809196021F928F9381E9B1
:101B500094E09F938F930E94E50780917A020F9003
:101B60000F900F900F9080FF0EC0809197021F92F0
:101B70008F9385E794E09F938F930E94E5070F90E2
:101B80000F900F900F9008958091930280FF02C0F4
:101B90008695089580E0089580919702833018F427
:101BA0008F5F80939702609193027091940280916D
:101BB0009502909196020C94280D809197028823AB
:101BC00019F0815080939702609193027091940272
:101BD00080919502909196020C94280D21E030E0BE
:101BE00001C0220F8A95EAF790910D02922381E0BD
:101BF00009F480E0089570E00C9404166F927F92CF
:101C00008F929F92AF92BF92CF92DF92EF92FF920C
:101C10000F931F93CF93DF9300D000D00F92CDB7D7
:101C2000DEB7709007019091930290FF26C0C0909C
:101C30000202D0900302C114D10489F580910601FB
:101C400033E0839FC0011124672D88569D4F0E9469
:101C5000FB0D0F900F900F900F900F90DF91CF9191
:101C60001F910F91FF90EF90DF90CF90BF90AF90BA
:101C70009F908F907F906F900895809108012091A0
:101C8000090133E0839FF0011124E856FD4F8217CC
:101C900070F61182108212828F5F3396F8CF90FF18
:101CA000CDCFF12CE12C43E0642E8E2D0E94EE0D61
:101CB000882309F43CC0F701EE0FFF1FEC0DFD1D5A
:101CC000A590B490A114B10409F4B8CF45E050E058
:101CD000B501CE0101960E94613109810F3F39F1B2
:101CE0008A81800F9927991F8630910514F085E02D
:101CF00090E04C01880C991C880D991D9C01285678
:101D00003D4F4901069D8001112408561D4F0815BD
:101D1000190520F035E0A30EB11CD8CF98014D81F4
:101D20006C818B810E94070D0D5F1F4FF0CF8FEFED
:101D3000E81AF80A28E0E216F10409F0B6CF7ECFDF
:101D40009091930290FF14C0909108012091090195
:101D500033E0939FF0011124E856FD4F921710F0E5
:101D60000C94FE0D8183608342839F5F3396F6CF90
:101D70000895CF93DF9300D00F92CDB7DEB7909147
:101D8000930290FF0AC09E012F5F3F4F0E94070DF4
:101D90004B8169818A810E94A00E0F900F900F9055
:101DA000DF91CF910895CF93DF93EC01EC81F0E0C8
:101DB000EB5BFA4F4491E3E9F2E0628181810E949A
:101DC000B90E8C818F5F8C83DF91CF910895CF9373
:101DD000DF93EC01E3E9F2E0438162818C810E94B0
:101DE000B90E8C818F5F8C83DF91CF9108950F9313
:101DF0001F93CF93DF9300D00F92CDB7DEB78C0146
:101E00008091E10181110AC09E012F5F3F4F4FEF8A
:101E10006FEF0E94070D8A818093E101F8016481D0
:101E2000613069F08091E10140E0662361F040E0BB
:101E3000623011F44091E10180E060E004C0609103
:101E4000E10140E080E00E94A00EF801848190E072
:101E5000019663E070E00E94EB3084830F900F9056
:101E60000F90DF91CF911F910F9108954F925F9244
:101E70006F927F928F929F92AF92BF92CF92DF929A
:101E8000EF92FF920F931F93CF93DF9300D00F92A7
:101E9000CDB7DEB7182FD62E042F722E9091930255
:101EA00090FF46C0E92FE695AE2FB0E0A35ABE4F93
:101EB0008C9180930B029E7F923009F04DC09E0161
:101EC0002F5F3F4F812F0E94070D4B8169818A81CF
:101ED0000E94A00E10939402D09295020093960255
:101EE000772009F49CC060919302709194028091D4
:101EF0009502909196020E94280D80917A0280FFAF
:101F000017C0809196021F928F93809195021F9225
:101F10008F93809194021F928F9388E392E09F9316
:101F20008F930E94E5070FB6F894DEBF0FBECDBFBA
:101F30000F900F900F90DF91CF911F910F91FF9015
:101F4000EF90DF90CF90BF90AF909F908F907F9059
:101F50006F905F904F900895823019F4009196022F
:101F6000B9CF863019F410919402B4CF8930D9F3E7
:101F7000893109F0AFCFE9518E2F8170682E8E2FF5
:101F800080958170C82EE695F0E0EB5BF94FE59007
:101F9000F490412CFF249DE5A92E92E0B92E60918A
:101FA0000A01461618F00E94FE0D94CF842C912C45
:101FB0008E9CC0018F9C900D9E9C900D112470E012
:101FC0000E94D730512E611028C0560E80917A029F
:101FD00080FF11C0FF92EF921F92CF921F925F92EB
:101FE0001F924F92BF92AF920E94E5070FB6F894EE
:101FF000DEBF0FBECDBF20910801820E911C94015F
:10200000220F331F280D391D28563D4F402F6D2DAF
:10201000852D0E94070D4394C2CF561AD7CF8091C9
:102020007A0280FF85CF1F920F931F92DF921F923B
:102030001F9381E192E073CFE3E9F2E09181282FD1
:102040004381628188E0890F0C94360F81E00C9403
:102050001C10E3E9F2E09181282F4381628188EF2F
:10206000890F0C94360F81E00C942910E3E9F2E01B
:10207000628128E0620F08F46FEF282F438181818D
:102080000C94360F81E00C943610E3E9F2E06281A3
:1020900028E0621B08F460E0282F438181810C94C2
:1020A000360F81E00C944510E3E9F2E0438128E02B
:1020B000420F08F44FEF282F628181810C94360F74
:1020C00081E00C945410E3E9F2E0438128E0421BE4
:1020D00008F440E0282F628181810C94360F81E062
:1020E0000C94631021E00C94360F20E00C94360F12
:1020F000EF92FF921F93CF93DF93EC0110E0EE2459
:10210000EA94F12C60910A01161770F00E94FE0DFE
:102110009A818C8190FF27C08F5F8C83DF91CF9154
:102120001F91FF90EF90089520910801422F410FD9
:102130005527551FCA019A01220F331F280F391F37
:1021400028563D4F70E0C7010E94EB30962F8C81DE
:102150004091960260919502199F800D11240E9472
:10216000070D1F5FCFCF8150D8CFAF92BF92CF92D4
:10217000DF92EF92FF920F931F93CF93DF93FC01B7
:1021800082810FEF80FF01E010E045E0A42E8091F6
:102190000A011817C8F00E94FE0D8091E30101307A
:1021A00009F055C0811102C080910A0181508093CD
:1021B000E301DF91CF911F910F91FF90EF90DF909E
:1021C000CF90BF90AF900895C0910801C12ED12C3F
:1021D000CC0DDD2DD11DCE01880F991FC80FD91F41
:1021E000C856DD4F198218821A8234E0E32EF12C92
:1021F000B12C8091E3018B0D86301CF16A2D0E9479
:10220000C930892F082E000C990BC816D90691F4F5
:10221000809196028E9DA0018F9D500D11245595A1
:102220004795559547959E0160919502809194023E
:102230000E94070DB00EF1E0EF1AF108D1F61F5F12
:10224000A6CF87FFDFCF90910A01890FDBCF90E007
:10225000019660910A0170E00E94EB30A8CF0F93C5
:102260001F93CF93DF93809108019091090123E0A0
:10227000829FF0011124E856FD4F891740F1C0E01C
:10228000D3E060910A01C61740F10E94FE0D209133
:1022900004018091E201820F8093E2019091050197
:1022A000920F90930501191654F4082E000C990B07
:1022B00040910A014150550B841795071CF0219558
:1022C00020930401DF91CF911F910F910895118206
:1022D000108212828F5F3396D0CF0C2F10E070E007
:1022E000C8010E94EB3020910801820F482F50E076
:1022F0002091E201022E000C330B02171307BCF0F1
:1023000020910501022E000C330B201731077CF0C1
:102310008D9F9001112428563D4F40919602609167
:102320009502809194020E94070DCF5FAACFFA0117
:10233000EE0FFF1FE40FF51FE856FD4F11821082CC
:102340001282F3CF0F931F93CF93DF938C01FC0185
:102350008481958101968170992795838483C0E05B
:10236000D5E580910A01C81730F0DF91CF911F9118
:102370000F910C94FE0D20910801422F4C0F552710
:10238000551FCA019A01220F331F280F391F2856E3
:102390003D4F8C2F8695F80144815581840F952FF0
:1023A000911D817040919602609195028D9F802DC4
:1023B00011240E94070DCF5FD4CF0F931F93CF93AB
:1023C000DF93EC0110E000E090910A0190171106F4
:1023D00009F06CF40E94FE0D8C8190E001968170F2
:1023E00099278C83DF91CF911F910F9108952091B0
:1023F0000801A801420F511D9A01220F331F240F1B
:10240000351F28563D4F4C81609195028091940272
:1024100096959017110651F04CF0442349F04091E5
:1024200096020E94070D0F5F1F4FCECF4423B9F3D2
:1024300040E0F7CF8F929F92AF92BF92CF92DF9200
:10244000EF92FF920F931F93CF93DF93FC01B28023
:10245000948081E0848300E015E05BE4A52E88246D
:102460008394EE24EA94F12C7BE4C72ED12C809146
:102470000A01081770F0DF91CF911F910F91FF9023
:10248000EF90DF90CF90BF90AF909F908F900C9483
:10249000FE0DC02FD0E01C9FF0011D9FF00D1124F8
:1024A000EC51FE4F91101CC0138212822091080142
:1024B000CE01820F911D9C01220F331F280F391F5F
:1024C00028563D4F1C9FF0011D9FF00D1124EC512B
:1024D000FE4F4281618180810E94070D0F5FC7CF4F
:1024E0002381222379F12150238334818A2D821B79
:1024F000311101C0822F1C9FF0011D9FF00D11248E
:10250000EC51FE4F90919602899FC0011124B601B3
:102510000E94D7306283211104C0332311F014824A
:10252000A38222E02B1510F21C9FF0011D9FF00DDD
:102530001124EC51FE4F809194028083809195028A
:102540008183B4CF0E945131823091400CF0AECFE4
:1025500082E08B1530F50E945131B7010E94EB30BB
:102560001C9FF0011D9FF00D1124EC51FE4F808344
:1025700022E02B15C8F40E94513120919502269536
:10258000622F70E00E94EB30280F1C9FF0011D9F0E
:10259000F00D1124EC51FE4F21831282A38284821C
:1025A00085CF80919402DCCF20919502EECF60918F
:1025B0009302669570E04BE050E08BE091E00E9462
:1025C0006A31892B19F481E080930C020E94152650
:1025D000909305028093040280917A0280FF08C0E4
:1025E00088EF91E09F938F930E94E5070F900F90E3
:1025F000089510920C0280917A0280FF08C08FED3E
:1026000091E09F938F930E94E5070F900F9008959C
:102610009091930290FF54C0917081113BC09260E1
:10262000909393026623E9F1609193027091940272
:1026300080919502909196020E94280D80917A02D5
:1026400080FF0FC08091930286951F928F938BEB32
:1026500093E09F938F930E94E5070F900F900F9048
:102660000F9060919302669570E04BE050E08BE034
:1026700091E00E946A31892B01F10E94F91281E0F8
:102680008093070240919602609195028091940296
:102690000C9475108B3210F09465C2CF880F982B74
:1026A000BFCF80917A0280FFDCCF80919302869524
:1026B0001F928F938DE993E0CCCF0E94D712DFCF8A
:1026C0000895682F90919302969581E0890F8B323F
:1026D00008F081E00C94081381E00C946113682FDA
:1026E0009091930296958FEF890F09F48AE20C94EA
:1026F000081381E00C946F1361E00C94081380912F
:10270000930281608093930280917A0280FF0DC0D2
:102710001F9281E08F938FE293E09F938F930E94AB
:10272000E5070F900F900F900F9080919302869580
:102730000C947C1360E00C94081380910A028111C0
:1027400060C080917A0280FF14C08EE594E09F9370
:102750008F930E94E50780917A020F900F9080FF7F
:1027600008C088E494E09F938F930E94E5070F9040
:102770000F900E948724811110C080917A0280FFFF
:1027800008C080E294E09F938F930E94E5070F902A
:102790000F900E941D250E943A0D0E94240D609307
:1027A00093027093940280939502909396026E7FA9
:1027B000C1F480917A0280FF08C087ED93E09F9377
:1027C0008F930E94E5070F900F900E943A0D0E9490
:1027D000240D6093930270939402809395029093DA
:1027E00096020E94150D0E94490D10920C028091D4
:1027F000930280FF03C086950E949A1381E0809324
:102800000A020895809193028160809393028091DF
:102810007A0280FF0DC01F9281E08F9386EF92E0D5
:102820009F938F930E94E5070F900F900F900F904A
:102830008091930286950C949A1321E030E0A901CF
:1028400002C0440F551F8A95E2F7CA0120910D027C
:10285000662361F0822B80930D0280910C0281111E
:1028600008C08091930286950C949A1380958223D8
:10287000F2CF0895CF93DF9380910102882321F155
:102880008091FD019091FE010E942D262091FF0173
:102890003091000228173907B8F4D0E0C0E08091E9
:1028A000010290E00C2E02C0959587950A94E2F7FC
:1028B00080FF04C060E08C2F0E941D142196C83058
:1028C000D10569F710920102DF91CF9108958091AF
:1028D00093028E7F80939302609193027091940291
:1028E00080919502909196020E94280D80917A0223
:1028F00080FF0FC08091930281701F928F938EEBA7
:1029000092E09F938F930E94E5070F900F900F9096
:102910000F900E94F9122FEF80E792E02150804043
:102920009040E1F700C000000C94FE0D80917A0207
:1029300080FF10C080919302809581701F928F93C9
:1029400086E693E09F938F930E94E5070F900F9088
:102950000F900F908091930280FD0C9467140C945B
:102960007F13809193028E7F8093930280917A02ED
:1029700080FF0CC01F921F9284E892E09F938F9378
:102980000E94E5070F900F900F900F900E94F91290
:102990002FEF80E792E0215080409040E1F700C0A7
:1029A00000000C94FE0D0F931F93CF93DF93809143
:1029B0000C02882309F43EC080910B02E09193023F
:1029C000E695E81BE09306028230D1F5F0E0EF5B7C
:1029D000FA4FE491CE2FD0E003ED1EE08091070284
:1029E000882389F0109207020E9415269E012095E7
:1029F0003095820F931F90930502809304021092EA
:102A000009021092080280910402909105020E942E
:102A10002D268C179D0770F0E0910402F0910502BD
:102A2000CE0FDF1FD0930502C093040284E092E032
:102A3000F8010995DF91CF911F910F910C943A14F1
:102A4000863049F4F0E0E25CFA4FE491CE2FD0E01A
:102A500007EE1EE0C3CF893051F4E695F0E0E55C67
:102A6000FA4FE491CE2FD0E008E710E1B7CF8F30D6
:102A700051F4E695F0E0E85CFA4FE491CE2FD0E017
:102A800005EB10E1ABCF853149F4F0E0EB5CFA4F98
:102A9000E491CE2FD0E00FE211E1A0CFC8EED3E059
:102AA00002EA11E1883109F499CF833239F4E3E382
:102AB000F5E0C591D49107EF1EE090CFC4EFD1E0CF
:102AC0000DED11E1843209F489CFC0EDD7E006E0C5
:102AD0001DE0853209F082CF8E2F63E00E94BD3069
:102AE000E92FF0E0E05DFA4FE491CE2FD0E00AE16B
:102AF00012E174CFFA01811101C0FB010994CF9357
:102B0000DF93C82FD62F0E94C40D8C1740F00E946F
:102B1000C40D8D1720F4DF91CF910C946C138C2F82
:102B2000DF91CF910C947C130F931F93CF938C0163
:102B3000FB01C281CC2309F465C00E94BB238272D1
:102B4000F801E25CFC45E431F10538F4EC5DFD4C44
:102B50000C94FF300E949614C0E08C2FCF911F91EF
:102B60000F91089549E753E16CE673E10E947A15ED
:102B7000F3CF4CE653E169E773E1F8CF43E350E16B
:102B800066E270E1F3CF46E250E163E370E1EECF3D
:102B900041E550E162E470E1E9CF42E450E161E5F2
:102BA00070E1E4CF4FE650E160E670E1DFCF40E650
:102BB00050E16FE670E1DACF4DED5DE06CEC7DE069
:102BC000D5CF4CEC5DE06DED7DE0D0CF81E00E9493
:102BD0007C13C2CF65E082E00E947F15BDCF68E024
:102BE00086E0FACF6EE089E0F7CF64E18FE0F4CFC2
:102BF00067E185E1F1CF88E1EACF62E289E1ECCFDC
:102C000083E2E5CFC1E0A9CF259A45B14F7D55B10B
:102C10005062EFB7F8949B01220F331F260F371F26
:102C2000280F391F2817390741F4EFBF8FE594E0CB
:102C30000197F1F700C000000895DC016D91CD010E
:102C400078E055B9000000C067FF45B9660F000085
:102C500000C000C000C045B900C07A9591F7E2CF2E
:102C60000C946108AF92BF92CF92DF92EF92FF92E5
:102C70000F931F93CF93DF93AAE9B1E028E931E0E6
:102C800082E1A82E82E0B82E6CE971E041E050E0CC
:102C90000D91802F82958F7090E0FC01C1A10F7083
:102CA0007A01002E01C0EE0C0A94EAF7FE2DF09591
:102CB000CF23FC01C1A3C2A1CE29C2A3E90119916E
:102CC0009E01E12FE295EF70F0E0F1A01F706A0124
:102CD000012E01C0CC0C0A94EAF7EC2CE094EF2012
:102CE000E1A2F2A0FC28F2A2EC0188A190E002C0CF
:102CF000959587950A95E2F78170E0A1F0E002C012
:102D0000F595E7951A95E2F790E0E0FD92E0892BC2
:102D1000F50181935F016A177B0709F0B9CFDF9155
:102D2000CF911F910F91FF90EF90DF90CF90BF90C8
:102D3000AF9008959F92AF92BF92CF92DF92EF92A1
:102D4000FF920F931F93CF93DF9302E112E08AE982
:102D5000C82E81E0D82E98E9E92E91E0F92E20E1E5
:102D6000A22E22E0B22ECEE0D2E0912CD801EC913E
:102D7000EE0FEE0FED938D01D6012D916D01A22F77
:102D8000A295AF70B0E090968C9190E02F7002C049
:102D9000959587952A95E2F781709927D7014D91EE
:102DA0007D01A42FA295AF70B0E090962C9130E0F9
:102DB0004F7002C0359527954A95E2F7A9014170F9
:102DC000552720FF02C042E050E0842BE82BD801B9
:102DD0001197EC93EF70F0E0E857FE4F8081F5011A
:102DE0009081890F808384303CF088818F5F888355
:102DF00060E0892D0E943016D5018C918D3F3CF406
:102E000088818150888361E0892D0E943016F50108
:102E10008081837887FF03C081508C6F8F5FD501DD
:102E20008D935D012196B1E09B120CC0DF91CF9193
:102E30001F910F91FF90EF90DF90CF90BF90AF90D8
:102E40009F9008959924939491CF0F931F93CF93BC
:102E5000DF93C62FD42F022FFC0182818823C9F073
:102E6000609316020E941526909315028093140217
:102E700080E28C0F883008F050C0C77081E001C03C
:102E8000880FCA95EAF7DF91CF911F910F910C94AB
:102E9000B01B10911602161335C080911402909148
:102EA00015020E942D26883C910560F5C0E2CD0FE9
:102EB0001D17B9F080E2810F883040F4177081E06F
:102EC00001C0880F1A95EAF70E94B71BC83048F472
:102ED00081E09D2F977001C0880F9A95EAF70E94B4
:102EE000B01B802F0E949D1BC830B8F4D77081E0C2
:102EF00001C0880FDA95EAF7DF91CF911F910F910A
:102F00000C94B71B80E28C0F883038F4C77081E0D6
:102F100001C0880FCA95EAF7EFCFDF91CF911F91DB
:102F20000F9108959C01CB01233F4CE5340731F10B
:102F300090F4283DFCE53F07E9F0293D4CE53407D6
:102F400069F1273D3C4579F426E241EE61EE0E94AD
:102F5000251780E00895253FFCE53F07B9F090F084
:102F6000263F3C45B9F0FC0182818823D1F01092C4
:102F70001602089527E245EE65EEE9CF26E241EE1E
:102F800060EEE5CF27E245EE64EEE1CF26E241EECA
:102F900062EEDDCF27E245EE66EED9CF28E241E0D2
:102FA000EBCF81E00895CF93DF93EC01FB018281A9
:102FB000882309F419C1C230FCE5DF07C0F1C6312E
:102FC0009CE5D90730F09E012A5F3C452930310548
:102FD00070F50E949A249093AC028093AB02C031AA
:102FE000ECE5DE0709F4CFC008F05BC0C8308CE523
:102FF000D80709F4B6C088F5C430ECE5DE0709F45B
:10300000A8C0C0F4C2308CE5D80709F49CC08091F8
:10301000AB028260C330DC4509F498C08091AB02FA
:103020009091AC020E94A8240E941D1E80E0DF91B6
:10303000CF9108958091AB028061C630ECE5DE0748
:1030400009F484C08091AB028860C730DC4508F485
:103050007DC08091AB02806279C0CC308CE5D8070E
:1030600009F489C070F48091AB028C60CA30ECE541
:10307000DE0709F46BC008F478C08091AB028E7F44
:1030800065C0CE308CE5D80709F479C08091AB02D9
:103090008B7FCF30DC4508F459C08091AB028F7E26
:1030A00055C0CB3FECE5DE0709F457C030F5C3311E
:1030B0008CE5D80709F46FC078F4C131ECE5DE0780
:1030C00009F465C0C231DC4509F0A8CF0E941D1E7D
:1030D0008091AB028F773AC0C5318CE5D80709F4EF
:1030E00062C008F476C08091AC028160CA3FDC45C2
:1030F00009F094CF8093AC0291CFCF3FFCE5DF077E
:1031000009F44DC088F48091AC028D7FCD3F9CE5E1
:10311000D90781F38091AC028E7FCE3FDC4550F31E
:103120008091AC028360E6CFC130FDE5DF0709F492
:1031300059C008F444C080E0C230DD4509F06ECFCC
:103140000E941F256BCF8091AB0281608093AB0200
:1031500065CF8091AB028460F9CF8091AC02826030
:10316000C9CF8091AB028064F1CF0E941D1E809177
:10317000AB028068EBCF8091AB028D7FE7CF80916F
:10318000AB02877FE3CF8091AB028F7DDFCF809151
:10319000AB028F7BDBCF8091AB02837FD7CF809157
:1031A000AC028C7FA7CF8091AB0282FB992790F96C
:1031B00021E0922790FB82F990FB83F9C7CF8091A1
:1031C000AC02982F909591708E7F892B90FB81F99E
:1031D00091CF0E941D1E9091AB02892F97FB87F91A
:1031E0008058B4CF81E0ACCF81E021CFCF93DF9383
:1031F000EB0186319C4511F50E94BB239A819923EE
:1032000099F08A7A91E009F490E090931702811185
:1032100009C089E20E9496230E94072480E0DF9182
:10322000CF91089585E3F6CF80911702811104C0F4
:1032300089E20E949D23F0CF85E3FBCF81E0EFCFB1
:1032400090931D0280931C020895E0911C02F0915E
:103250001D02309721F00190F081E02D099480E06B
:103260000895EF92FF920F931F93CF93DF938C01FA
:10327000E0911C02F0911D023097C1F10280F381B0
:10328000E02D099580917A0282FF30C080FF04C052
:1032900082E597E00E944C07D0E0C0E08CE4E82E85
:1032A00087E0F82E80917A0280FF0EC0F801EC0FC3
:1032B000FD1F80811F928F93FF92EF920E94E5077E
:1032C0000F900F900F900F902196C830D10551F7B5
:1032D00080917A0280FF0AC08AE497E0DF91CF9163
:1032E0001F910F91FF90EF900C944C07DF91CF91BD
:1032F0001F910F91FF90EF90089520911A02309145
:103300001B022817390771F090931B0280931A0251
:10331000E0911C02F0911D02309721F00680F781A8
:10332000E02D099408952091180230911902281770
:10333000390771F09093190280931802E0911C02F2
:10334000F0911D02309721F00084F185E02D099461
:10335000089585B7806885BF85B7806885BF089563
:10336000089508950C94B0190C94FF070E94A919B0
:103370000E94B1190C94B21981E008950C94BC1903
:103380000E940C260E94A50B0E9471260E949D138C
:103390000E9432160C94B419CF93C82F80917A02F0
:1033A00082FF1EC080FF1CC08BE697E00E944C0786
:1033B00080917A0280FF14C01F92CF9386E697E037
:1033C0009F938F930E94E50780917A020F900F9050
:1033D0000F900F9080FF04C084E697E00E944C0796
:1033E0008C2FCF910C94DD08AF92BF92CF92DF92D9
:1033F000EF92FF920F931F93CF93DF93CDB7DEB77A
:103400002A970FB6F894DEBF0FBECDBF0E94E80B1F
:103410000E94BE19882309F461C08FE1A82E82E0C2
:10342000B82E10E000E0C02E802F0E94590BE82E2D
:10343000F501D1905F01D81609F44AC080917A0253
:1034400081FD0E945F0B80E0FF24F394DE249D2D1C
:103450009F21C9F18E83CF82EF2081E009F480E0C3
:1034600088870E9415268160782F9A8789874E81E8
:103470005F8168858A850E94901AF801E15EFD4FA0
:103480008081F826F0820E94D3140E949A160E942E
:10349000251990911E02891791F10E942519809398
:1034A0001E022A960FB6F894DEBF0FBECDBFDF9185
:1034B000CF911F910F91FF90EF90DF90CF90BF9031
:1034C000AF900C94CC198F5FFF0C833009F0BFCF05
:1034D0000F5F1F4F0330110509F0A5CF8FEF8983D0
:1034E0008A831B820E9415268160782F9D838C839E
:1034F00049815A816B818D810E94901AC4CF2A968E
:103500000FB6F894DEBF0FBECDBFDF91CF911F91F4
:103510000F91FF90EF90DF90CF90BF90AF90089504
:10352000CF93DF93CDB7DEB72B970FB6F894DEBFFE
:103530000FBECDBF4F83588769877A878B871E82DE
:103540001D8285E0FE013796DE01119601900D92F5
:103550008A95E1F749815A816B817C818D819E81B9
:103560002B960FB6F894DEBF0FBECDBFDF91CF9183
:103570000C949320FC01808191810C946823CF935B
:10358000C82F882309F488C08238C1F40E94251905
:1035900081FD82C089E30E9496230E9407242FEFB9
:1035A00081EE94E0215080409040E1F700C000009F
:1035B00089E30E949D23CF910C9407248338A1F4C2
:1035C0000E94251980FD68C083E50E9496230E9411
:1035D00007242FEF81EE94E0215080409040E1F7E6
:1035E00000C0000083E5E5CF8438A1F40E942519CE
:1035F00082FD52C087E40E9496230E9407242FEF89
:1036000081EE94E0215080409040E1F700C000003E
:1036100087E4CFCF8CEF8C0F813AB8F48C2F0E94C7
:103620000B29811139C06C2F8091160190911701DF
:103630000E943625882329F08C2F0E949D230E940A
:1036400007248C2F0E949623B6CF80E28C0F8830FF
:1036500048F4C77081E001C0880FCA95EAF70E945C
:10366000BE23A9CFEBE5EC0FE33040F4F0E0E653E6
:10367000FE4F808190E0CF910C947D19C85AC731DC
:1036800058F4EC2FF0E0EE0FFF1FE456FE4F808160
:103690009181CF910C949319CF910895882309F4C7
:1036A0004BC0823871F40E94251981FF45C089E31F
:1036B0000E9496230E94072489E30E949D230C9474
:1036C0000724833859F40E94251980FF35C083E50B
:1036D0000E9496230E94072483E5EFCF843859F493
:1036E0000E94251982FF28C087E40E9496230E9429
:1036F000072487E4E2CF9CEF980F913AF0F290E232
:10370000980F983050F4877091E001C0990F8A9516
:10371000EAF7892F0E94C423D2CF9BE5980F9330FC
:1037200020F490E080E00C947D19885A873120F4D1
:1037300090E080E00C9493190895CF93C82F0E94D5
:10374000BF1AC93349F42FEF87EE93E02150804030
:103750009040E1F700C000008C2FCF910C944E1BDD
:10376000882321F00E94BE230C9407240895882307
:1037700021F00E94C4230C9407240895BF92CF9295
:10378000DF92EF92FF920F931F93CF93DF936C0121
:10379000D62FC72FFC01058102950F7012811111E0
:1037A0000E94DB230E94B423E82E882391F011238A
:1037B000D1F08C2F807F803421F080E28D0F883013
:1037C00090F082E00E9452240E94B42391E0E82EFF
:1037D000E926BC2EB2949FE0B922EB2DF0E0E85C24
:1037E000FD4C0C94FF30E12CF4CF0C2F0F70C07FF8
:1037F00011F00295007F1123A9F0002359F080E217
:103800008D0F883010F0D11109C0802F0E94BE2387
:103810000E9407248D2F0E94BF1A14C0802F0E947F
:10382000CE23F6CF8D2F0E944E1B002359F080E24D
:103830008D0F883010F0D1112CC0802F0E94C4232E
:103840000E9407242B2D2850330B2430310520F4FF
:103850000E9425190E94DD08EE2009F493C10E9400
:10386000B02380FD8FC1F60112820E94AA230E941C
:103870003522C6010E94E31D0E94AA23DF91CF9149
:103880001F910F91FF90EF90DF90CF90BF900C941D
:103890005622802F0E94D423D3CFFC2FFF70FF2EFF
:1038A000C07FC03219F0F29480EFF822DD2369F076
:1038B000D13049F1112391F1002351F1F6018581B5
:1038C00080FFA8CF8F70858323C0112381F0011161
:1038D00006C00E94EE238F290E94B01BB3CF013097
:1038E000C1F70E94EE238F290E94F423ABCF011170
:1038F00006C00E94FD238F2D0E94B71BA3CF01306D
:1039000009F4A0CFF6CF112329F0063008F09ACFA2
:103910008F2DE2CF053008F095CFEDCF002359F37E
:10392000D93349F4FFEF27EE33E0F1502040304027
:10393000E1F700C000008D2F0E944E1B83CF8C2F1B
:1039400086958695837069F0813009F07BCF8D2F45
:103950009C2F9370111102C090E080E00E94931997
:1039600071CF8D2F9C2F9370111102C090E080E0D9
:103970000E947D1967CF8C2F837009F041C011110F
:1039800061CF4D2F429546954770440F440F0D2F40
:103990000F7010E030E020E0042E04C0000F111F73
:1039A000221F331F0A94D2F760E070E0CB01D4FFEE
:1039B0000FC06FE070E080E090E004C0660F771FFA
:1039C000881F991F4A95D2F76095709580959095BC
:1039D000C695C695C370602B712B822B932BC2307A
:1039E00049F058F4C13019F00E94C9212BCF0E9430
:1039F000B72128CF0E94DB2125CF0E94B52122CFFD
:103A00008695112311F08C2F8170882309F41ACF29
:103A10004D2F429546954770440F440F0D2F0F7060
:103A200010E030E020E0042E04C0000F111F221F20
:103A3000331F0A94D2F760E070E0CB01D4FF0FC0CF
:103A40006FE070E080E090E004C0660F771F881F91
:103A5000991F4A95D2F76095709580959095C69577
:103A6000C695C370602B712B822B932BC23049F00B
:103A700058F4C13019F00E94AC22E4CE0E949A2280
:103A8000E1CE0E94BE22DECE0E94EF21DBCECF70BF
:103A9000112329F08C2F0E9435228D2F1DCF8D2FC1
:103AA0000E94B71B8C2F0E945622CCCED23F89F1A8
:103AB00060F4D03FC9F0D13F29F1112309F442C08D
:103AC0000111A8CE8C2F8F7121C0D33F39F1D43F83
:103AD000A1F7112369F1CF718C2F0E94352263E089
:103AE0008C2F0E943D24AECE112341F0053008F00A
:103AF000A9CE8C2F8F710E947922A4CE063008F0B7
:103B0000A1CEF7CF8C2F8F71112369F20E9435223D
:103B100099CE8C2F8F711123C9F3C5CF112329F0B2
:103B20008C2F8F710E9420228DCE0E94FB218ACE85
:103B300081E00E945224023008F484CE82E00E9488
:103B4000522480CE002359F0D93309F0F4CE8FEF00
:103B500097EEE3E081509040E040E1F7EACE8C2F11
:103B60008F71A1CF4C2F4F706D2FC6010E944D0950
:103B70000E942D2167CE4C2F4F706D2FC6010E94E1
:103B8000500960CEDF91CF911F910F91FF90EF9080
:103B9000DF90CF90BF9008950F931F93CF93DF9343
:103BA000EC01688179818A810E9472238C010E94D4
:103BB000D0220E94B421B801CE01DF91CF911F9194
:103BC0000F910C94BE1BCF93DF93EC018B819C81F2
:103BD000892B29F08881998189238F3F59F4DF91BE
:103BE000CF910895CE010E94CC1DCE01DF91CF91DF
:103BF0000C94C308CE010E94F5088111F3CF0E94F6
:103C0000B423882361F38A81882349F382E0DF911A
:103C1000CF910C9452240E94DB230E94EB230E943C
:103C2000072490E080E00E947D1990E080E00C94F1
:103C300093190E94A4230C940B1E0E94CB230C9476
:103C4000191EE92FE295EF70E250EE3070F4F0E0CB
:103C5000E85BFD4C0C94FF30803F19F020F4883E67
:103C600020F481E00895843FE1F380E00895883EE8
:103C7000C0F3813FD1F7F5CF93FB882780F90895F2
:103C80000E9468230C94211ECF93DF9300D000D0B4
:103C90000F92CDB7DEB70F900F900F900F900F904F
:103CA000DF91CF910895CF93DF9300D000D000D063
:103CB000CDB7DEB726960FB6F894DEBF0FBECDBFE8
:103CC000DF91CF9108951F93CF93DF93C09123028B
:103CD00016E0809124028C1304C0DF91CF911F91D4
:103CE0000895D0E01C9FF0011D9FF00D1124EB5DA5
:103CF000FD4F4081518162817381848195810E9451
:103D0000531E2196C770E5CF40915502509156023F
:103D100060915702709158028091590290915A0215
:103D20000C94531E1F93CF93DF9380915A02807F90
:103D3000A9F480915702882389F080912302C091D1
:103D400024026091550270915602A0915802B091E0
:103D50005902D62FD72316E0C81304C0DF91CF91A4
:103D60001F91089590E0109711F0DF3F19F401962C
:103D70008770F2CF189F9001199F300D1124F9011F
:103D8000EB5DFD4F41814713F2CF40814613EFCFEA
:103D900042814111ECCF438154814A1B5B0B483C6B
:103DA000510528F780915A028F70806180935A02E2
:103DB000F901E65DFD4F80818F708061808385E52C
:103DC00092E00E94E31DDF91CF911F910C94631E3E
:103DD000AF92BF92CF92DF92EF92FF920F931F9319
:103DE000CF93DF93CDB7DEB761970FB6F894DEBF00
:103DF0000FBECDBF8C0185E0F801DE011D9601905C
:103E00000D928A95E1F7F80140815181E28085E5C4
:103E1000C82E82E0D82E6091580270915902611527
:103E2000710509F461C19091550220915602892FC4
:103E300082238F3F09F458C1A380B480F0905702C9
:103E4000F501E61BF70BFF2009F4FCC080915A0234
:103E5000382F307FE83CF10508F0B2C0311179C04D
:103E6000FE2C251323C0941321C0E1101FC08F70B6
:103E7000806180935A020E94841EC6010E94E31D45
:103E800080915A02F80185838F2D61960FB6F894C0
:103E9000DEBF0FBECDBFDF91CF911F910F91FF907D
:103EA000EF90DF90CF90BF90AF900895AB2829F0AE
:103EB000842F85238F3F09F033C180E0F82FF17004
:103EC000DF2E80FF3CC0809123022091240236E047
:103ED000821315C04D875E878D859E850E9468235D
:103EE000292F22952F702230F0F0243018F59F7082
:103EF000F1F0F8019581907FD1F4D12C1EC090E0B3
:103F0000389FF001399FF00D1124EB5DFD4F618169
:103F1000651306C06081641303C062816E110FC017
:103F200001968770D5CF9F7011F0882331F3805EA2
:103F3000883018F3C8010E94E31DFD2CA5CFEE20A8
:103F400009F4A2CF80915A02816080935A02F12C29
:103F50009BCF251306C0941304C0F801EE2009F48A
:103F60008DC04D875E878D859E850E94401E88236B
:103F700019F1EE2009F180915A02803270F02091FF
:103F800055023091560238872F831986BB86AA8640
:103F90008C87CE0107960E94E31D86E0F801A5E517
:103FA000B2E001900D928A95E1F70E94921E0E9464
:103FB000841EFF24F39468CFC8010E94E31DF9CF4B
:103FC000311113C07A2DB98AA88A6E2D89890E9471
:103FD000441E85E592E00E94E31D86E0F601119201
:103FE0008A95E9F70E94841EB2CF25130FC094135F
:103FF0000DC0E1100BC0F8018583C8010E94E31DCC
:1040000086E0F60111928A95E9F73ECF4D875E87EB
:104010008D859E850E94401E882371F2EE2061F2FC
:1040200080915A02803208F4B8CF20915502309125
:1040300056023A8329831B82BD82AC828E83CE01D5
:104040000196A9CFE83CF10508F041C0FE2CEE2016
:1040500009F4B2CF25132AC0941328C080915A02C4
:1040600080FD1BC0982F907FC1F0F8018583903FA1
:1040700031F0982F907F905F8F70892B8583C801D6
:104080000E94E31D86E0F801A5E5B2E001900D92E3
:104090008A95E1F70E94841EF7CE86E0F801A5E537
:1040A000B2E001900D928A95E1F7EECE4D875E87E2
:1040B0008D859E850E94401E81116FCF80915A028E
:1040C000816080935A02C8010E94E31DDDCE7A2DE3
:1040D000B98AA88A6E2D89890E94441E86E0F6015D
:1040E00011928A95E9F7D6CFEE2009F465CF4D8776
:1040F0005E878D859E850E94401EF82E882309F4D8
:104100005BCF86E0F801A5E5B2E001900D928A95BB
:10411000E1F785E592E00E94BA1A0E94921EBACF9A
:1041200081E08E25CBCE1F93CF93DF93CDB7DEB743
:104130002C970FB6F894DEBF0FBECDBF4F835887C4
:1041400069877A878B879C87CE0107960E94E81E35
:10415000882369F08A859B85892B39F04F815885A2
:10416000842F85238F3F09F071C016E05FC086E081
:10417000FE013796DE01119601900D928A95E1F7C6
:104180008A859B85892B89F388859F8189238F3F29
:1041900061F32091240230E0C901019687709927CC
:1041A000409123024817190671F40E941D1E1092B7
:1041B00024021092230286E0E5E5F2E0DF011D9281
:1041C0008A95E9F7D2CF96E0929FD001939FB00DE8
:1041D0001124AB5DBD4FFE01319601900D929A9571
:1041E000E1F7809324020E94631EBFCF819FC0012C
:1041F00011248B5D9D4F0E94E81E8823E9F0E09119
:1042000023021E9FF0011124EB5DFD4F408151817F
:1042100062817381848195810E94531E8091230263
:1042200090E0019687709927809323028091230262
:10423000909124028913DACF2C960FB6F894DEBF42
:104240000FBECDBFDF91CF911F91089569857A850B
:104250008B859C850E94531E88CFEF92FF920F930F
:104260001F93CF93DF938C01892B81F0F12CEE24E7
:10427000E394E8012196F8018491843770F4843046
:1042800008F05FC08130B1F08230A1F1DF91CF91B1
:104290001F910F91FF90EF900895853709F44CC05E
:1042A00008F43DC09CE7980F903780F78F770E9405
:1042B0004E1B49C00E5F1F4FFE01849190E2980F84
:1042C000983060F48770FE2D01C0FF0F8A95EAF7E1
:1042D0008F2F0E94DE230E94072402C00E94BF1A73
:1042E0008F2D815030F2EFE9FFE03197F1F700C0F8
:1042F0000000F7CF0E5F1F4FFE01849190E2980FF0
:10430000983050F48770FE2D01C0FF0F8A95EAF7B0
:104310008F2F0E94E423DFCF0E944E1BE1CF0E5F60
:104320001F4FFE01C491C150D8F28FE99FE0019761
:10433000F1F700C00000F7CF0E5F1F4FFE01F490B1
:10434000CFCF0E94BF1A8E01CBCF08950C94A52128
:104350000E94A6216093690270936A0280936B02A7
:1043600090936C020C940B1E08950C94A8210F934B
:104370001F930091690210916A0220916B023091A3
:104380006C02602B712B822B932B1F910F910C943D
:10439000A8210F931F930091690210916A02209146
:1043A0006B0230916C0260237123822393231F914F
:1043B0000F910C94A8210F931F9300916902109103
:1043C0006A0220916B0230916C026027712782276C
:1043D00093271F910F910C94A8210C9406080E941A
:1043E000ED2160936502709366028093670290935B
:1043F00068020C940B1E60E070E0CB010C94EF217E
:10440000611571058105910529F481E0442361F06E
:1044100080E00895DC01CB0104C0B695A79597957F
:1044200087954A95D2F781700895482F609165026B
:104430007091660280916702909168020C9400224C
:104440000F931F9341E050E060E070E08A019B0110
:1044500004C0000F111F221F331F8A95D2F7C90114
:10446000B8011F910F910C94EF210F931F9341E01E
:1044700050E060E070E004C0440F551F661F771FD6
:104480008A95D2F78091650290916602A0916702A9
:10449000B09168028A019B01082B192B2A2B3B2B18
:1044A000C901B8011F910F910C94EF210F931F9335
:1044B00041E050E060E070E004C0440F551F661F0B
:1044C000771F8A95D2F7CB01BA01609570958095D8
:1044D00090950091650210916602209167023091DB
:1044E000680260237123822393231F910F910C9400
:1044F000EF210F931F9341E050E060E070E004C0B3
:10450000440F551F661F771F8A95D2F78091650269
:1045100090916602A0916702B09168028A019B01A6
:10452000082719272A273B27C901B8011F910F9196
:104530000C94EF210F931F93009165021091660276
:104540002091670230916802602B712B822B932B94
:104550001F910F910C94EF210F931F93009165020F
:1045600010916602209167023091680260237123E6
:10457000822393231F910F910C94EF210F931F938C
:1045800000916502109166022091670230916802E5
:1045900060277127822793271F910F910C94EF2199
:1045A0000895E92FEE0F9E0F890F982F977041E025
:1045B00001C0440F9A95EAF786958695869595E011
:1045C000899FF0011124E55AFD4F30E020E070E0B2
:1045D0005191DF011197CB01022E02C0969587956C
:1045E0000A94E2F7817081958527842385278C932F
:1045F0002F5F3F4F2530310559F70895E92FEE0F12
:104600009E0F890F982F977086958695869525E041
:10461000829FF0011124E55AFD4F50E040E080E018
:10462000219130E0092E02C0369527950A94E2F7D1
:1046300021703327042E01C0220F0A94EAF7822B3F
:104640004F5F5F4F4530510559F70895BF92CF92A4
:10465000DF92EF92FF920F931F93CF93DF938C0122
:10466000C0906502D0906602E0906702F090680208
:104670008091690290916A02A0916B02B0916C02E4
:10468000C82AD92AEA2AFB2ACFE1D0E0BC2ED701DA
:10469000C6010C2E04C0B695A795979587950A94E8
:1046A000D2F780FD0EC0219788F7B12C8B2DDF91BA
:1046B000CF911F910F91FF90EF90DF90CF90BF901F
:1046C0000895B8018C2F0E946D09019761F3EECF18
:1046D000CF93DF93EC010E942623BE01DF91CF919F
:1046E0000C946D091F93CF93DF93EB0190912202FD
:1046F000992331F0CB01DF91CF911F910C94682366
:10470000882379F0CB010E942623182F682FCE0131
:104710000E94D122BE01812FDF91CF911F910C9475
:104720006D09CB010E94FE22182FF4CF682F8091D3
:104730001601909117010C946C25682F8091160139
:10474000909117010C946E2580911601909117019C
:104750000C94702580916D028595859585950895B9
:1047600080916D028770089590916D02977081E03D
:1047700009F480E00895809179020895909179027A
:10478000892B8093790208958095909179029823DE
:104790009093790208951092790208959091780289
:1047A000892B8093780208958095909178029823C0
:1047B000909378020895109278020895909177026C
:1047C000892B8093770208958095909177029823A2
:1047D00090937702089510927702089580916E0267
:1047E000089508950C94F12390916E02981721F08A
:1047F00080936E020C94F223089580916E028823B8
:1048000029F010926E0280E00C94F2230895E0915A
:104810001601F0911701809179028083E0911601D1
:10482000F0911701808190917802892B8083E0912B
:104830001601F0911701808190917702892B808376
:1048400090916E02992381F0E0911601F091170189
:104850008081892B808380911601909117010E949D
:10486000242581110E94FD2380911601909117014A
:104870000C94311908950C943A2498E0899F900182
:104880001124622B60936D020E94352280916D028B
:104890008595859585950C943B2410926D0280E05A
:1048A0000C943B2490916D028095892380936D0236
:1048B000282F277071F4282F082E000C330B921725
:1048C000130639F08595859585950E9456220C949E
:1048D0004D2408959093DD018093DC010895829525
:1048E00090E09C01220F331F220F331F2C7C9595E3
:1048F0008795959587958373282B30E0C901880F9C
:10490000991F8A7A359527952575822B089590E011
:1049100080E00E94853121E08C3E9E4F09F020E02E
:10492000822F089582E090E00C94773183E090E04C
:104930000C947731CF9384E090E00E947731C82FB8
:1049400081E290E00E947731982F8C2FCF910895CB
:10495000CF93C92F682F84E090E00E948B316C2F99
:1049600081E290E0CF910C948B31AB01BC018FE0E0
:1049700090E00C949D31AB01BC0183E190E00C947C
:104980009D3160E070E0CB010C94BB246CEE7EEFB7
:1049900090E080E00E94A93160E082E090E00E9417
:1049A0008B3160E083E090E00E948B3110926902CD
:1049B00010926A0210926B0210926C0260E084E026
:1049C00090E00E948B3160E081E290E00E948B31A8
:1049D00060E085E090E00E948B3160E086E090E04E
:1049E0000E948B316FEF87E090E00E948B3140E0B6
:1049F00050E0BA0188E090E00E949D3160E08DE0D7
:104A000090E00E948B3140E050E0BA0188E190E0F4
:104A10000E949D3160E087E190E00E948B3140E090
:104A200050E0BA018CE190E00E949D3160E080E2AC
:104A300090E00E948B310C94EE070C94C624682FF2
:104A40008EE090E00C948B319C012E5F3F4FAC01C7
:104A5000485F5F4F80E02417350709F40895F90196
:104A600091919F019923B9F38F5FF5CF662349F0A8
:104A7000FC01329608962191261729F0E817F907CC
:104A8000D1F780E0089581E008959C01FC01329601
:104A90009FEF80E04191461751F09F3F19F441117B
:104AA00001C0982F8F5F8630A9F79F3F09F40895C2
:104AB000290F311D97FD3A95F90162830895FC0194
:104AC000329608962191261303C0DF0111971C929C
:104AD000E817F907B9F708950C9445250C945F255C
:104AE000029626E0FC0111922A95E9F708950895AF
:104AF00008950C9478250E9479258091B102843024
:104B000009F439C010927B0288E190E020E40FB6EE
:104B1000F894A895809360000FBE2093600080E019
:104B20000E94DD080E94F91280917C0281110AC066
:104B300081E080937C0280919302817080937D025A
:104B40000E94B1140E94792583B7817F846083BF5E
:104B500083B7816083BF7894889583B78E7F83BF46
:104B60000FB6F894A89580916000886180936000EA
:104B7000109260000FBE08950895CF930E9477258C
:104B80000E94E80B0E94BC25C0E08C2F0E94590BAC
:104B9000811105C0CF5FC330C1F7CF91089581E087
:104BA000FCCF08950C94D1250E941D1E0E9425194A
:104BB0000E94DD0810927C0280917D0281110E948A
:104BC00002140E94D7120C94D2251F921FB61F9276
:104BD00011248F939F93AF93BF9380917B02811198
:104BE00013C08091A7029091A802A091A902B09150
:104BF000AA024196A11DB11D8093A7029093A8021D
:104C0000A093A902B093AA02BF91AF919F918F91F7
:104C10001F901FBE1F90189582E084BD93E095BD44
:104C20009AEF97BD80936E0008952FB7F894809106
:104C3000A7029091A802A091A902B091AA022FBF49
:104C400008952FB7F8946091A7027091A8028091FF
:104C5000A9029091AA022FBF08959C014FB7F89422
:104C60008091A7029091A802A091A902B091AA02F6
:104C70004FBF821B930B089578941F921FB61F920B
:104C800011248F939F93AF93BF938091A70290912C
:104C9000A802A091A902B091AA020196A11DB11D7E
:104CA0008093A7029093A802A093A902B093AA02AE
:104CB000BF91AF919F918F911F901FBE1F9018952C
:104CC00087E797E7909301088093000888E19AE0CE
:104CD0000FB6F894A895809360000FBE9093600083
:104CE000FFCF0E948724811102C00E941D250E94CF
:104CF000922480937A020E949A249093AC0280932B
:104D0000AB020E949624682F70E090E080E00C9443
:104D1000B521CF93C82F1F928F9384E897E09F937C
:104D20008F930E94E50761E070E080E090E004C0AE
:104D3000660F771F881F991FCA95D2F70E94B52169
:104D40000F900F900F900F90CF910C941D1ECF934A
:104D5000DF938B3109F4FAC108F09CC18B3009F460
:104D6000B8C108F06AC1863009F4C6C148F485307C
:104D700009F49EC18FEE9BE00E944C0780E0CCC1FD
:104D8000873009F4CCC18830A9F78EE89CE00E94F6
:104D90004C078FED9BE00E944C070E9496241F92C7
:104DA0008F938CED9BE09F938F930E94E5078AED94
:104DB0009BE00E944C070E949224C82F87EC9BE046
:104DC0000E944C071F92CF9382EC9BE09F938F939E
:104DD0000E94E50780EC9BE00E944C0786EB9BE07D
:104DE0000E944C078C2F81701F928F9383EB9BE066
:104DF0009F938F930E94E50781EB9BE00E944C07F5
:104E000087EA9BE00E944C07C1FB882780F91F922C
:104E10008F9384EA9BE09F938F930E94E50782EA39
:104E20009BE00E944C0786E99BE00E944C07C2FB76
:104E3000882780F91F928F9383E99BE09F938F933C
:104E40000E94E50781E99BE00E944C0788E89BE00F
:104E50000E944C07C3FBCC27C0F91F92CF9385E873
:104E60009BE09F938F930E94E50783E89BE00E945D
:104E70004C070E949A24EC018FE69BE00E944C07AD
:104E8000DF93CF938AE69BE09F938F930E94E50781
:104E900088E69BE00E944C078FE49BE00E944C0751
:104EA0008C2F81701F928F938CE49BE09F938F9344
:104EB0000E94E5078DB79EB780960FB6F8949EBF07
:104EC0000FBE8DBF8AE49BE00E944C0783E39BE00A
:104ED0000E944C07C1FB882780F91F928F9380E3C3
:104EE0009BE09F938F930E94E5078EE29BE00E94D8
:104EF0004C078CE19BE00E944C078D2F81701F9224
:104F00008F9389E19BE09F938F930E94E50787E150
:104F10009BE00E944C0785E09BE00E944C07D695E1
:104F2000D1701F92DF9382E09BE09F938F930E944A
:104F3000E50780E09BE00E944C078EEE9AE00E941D
:104F40004C07C2FB882780F91F928F938BEE9AE063
:104F50009F938F930E94E50789EE9AE00E944C0789
:104F600087ED9AE00E944C07C3FB882780F91F92C7
:104F70008F9384ED9AE09F938F930E94E50782EDD3
:104F80009AE00E944C0788EC9AE00E944C07C4FB10
:104F9000882780F91F928F9385EC9AE09F938F93D7
:104FA0000E94E50783EC9AE00E944C0781EB9AE0AF
:104FB0000E944C07C5FB882780F91F928F938EEAC9
:104FC0009AE09F938F930E94E5078CEA9AE00E94F3
:104FD0004C0780E99AE00E944C07C6FB882780F9BD
:104FE0001F928F938DE89AE09F938F930E94E5071D
:104FF0008DB79EB780960FB6F8949EBF0FBE8DBF3B
:105000008BE89AE00E944C0783E89AE00E944C07E4
:10501000C7FBCC27C0F91F92CF9380E89AE09F93FB
:105020008F930E94E5078EE79AE00E944C070F904D
:105030000F900F900F9081E06FC0803109F49EC0F7
:1050400080F48E3009F096CE90917A02892F8B7F72
:1050500092FF846080937A0282FF8DC08AE19CE097
:1050600081C0863109F49AC0893109F083CE81EB81
:1050700098E00E944C078CE798E00E944C078AE475
:1050800098E00E944C078DE198E00E944C0782EF67
:1050900097E021C08A3249F190F4873211F128F467
:1050A0008E3108F467CE8D511DC0893209F062CE71
:1050B0008DE59CE00E944C070E94E608BCCF83343B
:1050C00068F48A3308F0A1C0853359F0883309F0B9
:1050D00051CE8BED98E00E944C07ADCF833409F0A0
:1050E00049CE80E00E948926A6CF8DE79CE00E94F1
:1050F0004C070E941D259FCF80917A02807F80936C
:105100007A0280EC98E00E944C0789E79CE00E94BC
:105110004C0781E080937E02DF91CF9108959091BA
:105120007A02892F8E7F90FF816080937A0280FFC0
:1051300003C081E59CE0CFCF84E49CE00E944C0753
:1051400080917A02817F80937A0275CF90917A0262
:10515000892F8D7F91FF826080937A0281FF08C042
:1051600087E39CE00E944C0780917A028160EBCF3C
:1051700089E29CE0B0CF8AE09CE0ADCF90917A02CA
:10518000892F877F93FF886080937A0283FF03C013
:105190008EEF9BE0E7CF81EF9BE09DCF84EE97E021
:1051A0000E944C070E9425191F928F938AEC97E06A
:1051B0009F938F930E94E507809122011F928F9306
:1051C00083EB97E09F938F930E94E50780918B027A
:1051D0001F928F9380EA97E09F938F930E94E50739
:1051E0000E9421269F938F937F936F9389E897E086
:1051F0009F938F930E94E5078DB79EB742960FB697
:10520000F8949EBF0FBE8DBF16CF89536BCF80E041
:1052100008950C940729CF93C82F80917E0288238C
:1052200031F0813099F010927E0280E00DC00E9432
:10523000BB238232D1F78C2F0E940729811119C01C
:105240008C2F0E94A7268170CF9108950E94BB23C6
:10525000823289F38C2F0E940929811119C0C4312F
:10526000C9F050F4CB3061F08EE797E00E944C0714
:1052700013C081E090E0E7CFC93261F0C833A1F7F5
:1052800080EC98E00E944C0780E897E00E944C0771
:1052900081E0D9CF10927E0280E0D5CF80918A0242
:1052A000089508959FB7F894109281029FBF90913E
:1052B000B102943009F048C02091E9002F7030917C
:1052C000EC00932F917030FD90E8922B23E0209317
:1052D000E9002091EB0020FF34C02091EE0027FF71
:1052E00030C020917F02222321F02091E80025FF89
:1052F00028C010927F0226E03091E80035FF14C0EC
:105300008093F1008091E80085FD27C08091E8003E
:1053100080FFFCCF8091E8008E778093E8009F703B
:105320009093E90080E008953091B102343049F45F
:105330003091EB0035FD05C0215041F481E08093B0
:105340007F029F709093E9008FEF0895EFE9FFE0EF
:105350003197F1F700C00000CFCF8FB7F89421E06C
:10536000209381028FBFDBCFCF93DF9300D00F92CA
:10537000CDB7DEB79091B102943019F589837B8364
:105380006A8382E08093E9008FEF9091E80081507A
:1053900095FD06C095ED9A95F1F700008111F5CFC6
:1053A0008091E80085FF0DC050E040E063E070E0D0
:1053B000CE0101960E942D2C8091E8008E7780937B
:1053C000E8000F900F900F90DF91CF910895CF9349
:1053D000DF93EC010E94102C823011F0843031F404
:1053E000BE0184E0DF91CF910C94B429DF91CF917D
:1053F0000895BC0183E00C94B429CF93DF93EC01B2
:105400000E94102C823011F0843039F581E08093B5
:10541000E9008FEF9091E800815095FD06C095ED71
:105420009A95F1F700008111F5CF8091E80085FF92
:1054300014C050E040E068E070E0CE010E942D2CE6
:105440008091E8008E778093E80088E0FE01A2E872
:10545000B2E001900D928A95E1F7DF91CF91089526
:105460008EEB9CE00E944C078091B002811109C034
:105470000E94BD2D0E941A2E8091E20084608093CC
:10548000E20008958AEB9CE00E944C071092B00263
:10549000089586EB9CE00C944C0782EB9CE00C9406
:1054A0004C078EEA9CE00E944C070C94D425209176
:1054B00080022F5F822F62E30E94BD30992319F092
:1054C00020938002089510928002809181028823A7
:1054D000F1F08091B1028430C1F49091E9009F70A5
:1054E0002091EC00822F817020FD80E8892B93E0D1
:1054F0009093E9009091EB0090FF04C09091EE0032
:1055000097FD08C08F708093E90010928102089582
:105510001092F1009091E80095FDFACF9091E8008B
:1055200090FFF0CF9091E8009E779093E800EACF4B
:1055300042E061EC81E00E94392D42E261EC82E0C0
:105540000E94392D42E261EC83E00C94392D809168
:10555000B302833009F45FC030F48130C1F182308E
:1055600009F49BC008958A3009F487C08B3009F490
:105570006DC0893009F04EC08091B202813209F0CD
:1055800049C08091B6029091B702029708F042C0DC
:105590008091E800877F8093E8008091E80082FF97
:1055A00035C09091F3008091F200029729F4809128
:1055B000F1008B7F813021F48091F10080938A0289
:1055C0008091E8008B778093E8000C946D2D80919A
:1055D000B202813AF9F48091E800877F8093E80075
:1055E0008091B6029091B702892B61F468E082E85D
:1055F00092E070E00E947C2C8091E8008B77809391
:10560000E800089560E090E080E0F3CF8091B1027F
:105610008111C3CF08958091B202813AD9F7809168
:10562000B6029091B702892BA9F78091E800877F95
:105630008093E8008091E80080FFFCCF80912201F8
:105640008093F1008091E8008E77BDCF8091B20207
:10565000813201F78091B6029091B702892BD1F681
:105660008091E800877F8093E8000E946D2D8091F3
:10567000B402809322010C941D1E8091B2028132EB
:1056800049F68091E800877F8093E8000E946D2DA5
:105690008091B50280938B0208958091B202813A85
:1056A00009F0B8CF8091E800877F8093E80080916F
:1056B000E80080FFFCCF80918B02C2CF84B7877F48
:1056C00084BF0FB6F894A89580916000886180939C
:1056D0006000109260000FBE80E890E00FB6F89472
:1056E00080936100909361000FBE0E94B6190E94E2
:1056F000BD2D0E941A2E8091E20084608093E2000A
:1057000082E599E20E946A2478940E94A2300E9465
:10571000C01988E191E00E9420198DE99CE00E9467
:105720004C078091B102853019F00E94F419F9CF2D
:1057300089E99CE00E944C070E947B258091AF0282
:10574000882379F30E94BD25882359F30E94172CE2
:10575000E8CF0C94AB2B292F33272330310521F1CF
:1057600068F42130310509F449C02230310509F4CB
:105770004AC090E080E030E020E029C021323105CD
:1057800081F122323105A9F76330710590F7FB01F1
:10579000EE0FFF1FE053FE4F2081318163537E4F98
:1057A000FB01808190E013C099278130910599F029
:1057B000009741F08230910589F00397D1F6E2EC31
:1057C000FCE002C0E8EEFCE0849190E09F01FA0169
:1057D000318320830895E4EDFCE0F6CFE8ECFCE0B3
:1057E000F3CF6330710528F6660F771FFB01EA528D
:1057F000FE4F2081318189E090E0E9CF82E190E0A5
:1058000027E43DE0E4CF8BE590E02CEE3CE0DFCFF9
:105810008091B102843011F482E0089581E008950E
:1058200080918C02811102C00C94082C089580E1B3
:1058300089BD82E189BD09B400FEFDCF8091D80009
:105840008F7D8093D8008091E00082608093E0009B
:105850008091E00081FDFCCF0895AF92BF92CF927E
:10586000DF92FF920F931F93CF93DF936C01EB01B5
:105870008A010E948C2DF82E811123C0011511057B
:1058800039F0F80180819181C81BD90BC80ED91E4F
:10589000B12CA12C2097A9F08091E80085FD22C0B1
:1058A0008091E8008E778093E80001151105A1F042
:1058B000F80180819181A80EB91EB182A08285E095
:1058C000F82E8F2DDF91CF911F910F91FF90DF90D8
:1058D000CF90BF90AF9008950E948C2D8823D1F275
:1058E000F82EEFCFF60181916F018093F10021979F
:1058F000FFEFAF1ABF0ACECFFC018091B8029091A2
:10590000B90286179707A0F06115710529F49091E7
:10591000E8009E779093E80090E06115710551F4DE
:10592000911108C08091E80082FF34C080E00895A2
:10593000BC01F2CF8091B1028823C1F18530C1F161
:105940008091E80083FD30C08091E80082FDEACFBD
:105950008091E80080FFE1CF8091F3002091F20078
:10596000382F6115710519F02830310558F091E094
:105970002830310509F090E02091E8002E7720933F
:10598000E800CBCF81918093F100615071092F5FC6
:105990003F4FE7CF8091B102882341F0853041F03D
:1059A0008091E80083FFBECF81E0089582E00895F2
:1059B00083E00895FC018091B8029091B9028617A6
:1059C0009707A0F06115710529F48091E8008E77A2
:1059D0008093E80090E06115710551F4911108C0C1
:1059E0008091E80082FF35C080E00895BC01F2CFCD
:1059F0008091B1028823C9F18530C9F18091E80016
:105A000083FD31C08091E80082FDEACF8091E800FB
:105A100080FFE1CF8091F3002091F200382F6115D3
:105A2000710519F02830310558F091E02830310522
:105A300009F090E08091E8008E778093E800CBCF6A
:105A400084918093F1003196615071092F5F3F4F2F
:105A5000E6CF8091B102882341F0853041F08091FA
:105A6000E80083FFBDCF81E0089582E0089583E0E0
:105A70000895982F973028F08F708093E90081E087
:105A800008959093E900242F762F50E0981731F075
:105A90007091EC002091ED005091F00021FD02C0CA
:105AA0009F5FE8CF3091EB003E7F3093EB00309169
:105AB000ED003D7F3093ED003091EB00316030938D
:105AC000EB007093EC002093ED005093F0002091D8
:105AD000EE0027FDE5CF80E008958091B20287FFB8
